{
  "_format": "hh-sol-artifact-1",
  "contractName": "TokenExchange",
  "sourceName": "contracts/TokenExchange.sol",
  "abi": [
    {
      "inputs": [
        {
          "internalType": "address",
          "name": "_tokenAAddress",
          "type": "address"
        },
        {
          "internalType": "address",
          "name": "_tokenBAddress",
          "type": "address"
        },
        {
          "internalType": "uint256",
          "name": "_price",
          "type": "uint256"
        }
      ],
      "stateMutability": "nonpayable",
      "type": "constructor"
    },
    {
      "inputs": [],
      "name": "decimals",
      "outputs": [
        {
          "internalType": "uint256",
          "name": "",
          "type": "uint256"
        }
      ],
      "stateMutability": "view",
      "type": "function"
    },
    {
      "inputs": [
        {
          "internalType": "address",
          "name": "_tokenAddress",
          "type": "address"
        },
        {
          "internalType": "uint256",
          "name": "_amount",
          "type": "uint256"
        }
      ],
      "name": "deposit",
      "outputs": [],
      "stateMutability": "nonpayable",
      "type": "function"
    },
    {
      "inputs": [
        {
          "internalType": "address",
          "name": "_tokenAddress",
          "type": "address"
        },
        {
          "internalType": "uint256",
          "name": "_amount",
          "type": "uint256"
        }
      ],
      "name": "exchange",
      "outputs": [],
      "stateMutability": "nonpayable",
      "type": "function"
    },
    {
      "inputs": [],
      "name": "owner",
      "outputs": [
        {
          "internalType": "address",
          "name": "",
          "type": "address"
        }
      ],
      "stateMutability": "view",
      "type": "function"
    },
    {
      "inputs": [],
      "name": "price",
      "outputs": [
        {
          "internalType": "uint256",
          "name": "",
          "type": "uint256"
        }
      ],
      "stateMutability": "view",
      "type": "function"
    },
    {
      "inputs": [
        {
          "internalType": "uint256",
          "name": "_decimals",
          "type": "uint256"
        }
      ],
      "name": "updateDecimals",
      "outputs": [],
      "stateMutability": "nonpayable",
      "type": "function"
    },
    {
      "inputs": [
        {
          "internalType": "uint256",
          "name": "_price",
          "type": "uint256"
        }
      ],
      "name": "updatePrice",
      "outputs": [],
      "stateMutability": "nonpayable",
      "type": "function"
    }
  ],
  "bytecode": "0x6080604052601260045534801561001557600080fd5b50604051610b7c380380610b7c83398101604081905261003491610092565b600080546001600160a01b03199081163317909155600391909155600180546001600160a01b03948516908316179055600280549290931691161790556100cd565b80516001600160a01b038116811461008d57600080fd5b919050565b6000806000606084860312156100a6578283fd5b6100af84610076565b92506100bd60208501610076565b9150604084015190509250925092565b610aa0806100dc6000396000f3fe608060405234801561001057600080fd5b506004361061007d5760003560e01c806366675c571161005b57806366675c57146100c85780638d6cc56d146100db5780638da5cb5b146100ee578063a035b1fe146101035761007d565b8063045d038914610082578063313ce5671461009757806347e7ef24146100b5575b600080fd5b6100956100903660046108c4565b61010b565b005b61009f61079a565b6040516100ac9190610a31565b60405180910390f35b6100956100c33660046108c4565b6107a0565b6100956100d6366004610921565b610851565b6100956100e9366004610921565b610880565b6100f66108af565b6040516100ac9190610972565b61009f6108be565b60015482906001600160a01b038083169116148061013657506002546001600160a01b038281169116145b61015b5760405162461bcd60e51b8152600401610152906109c3565b60405180910390fd5b6001546000906001600160a01b03858116911614156104da5773__$abe6619838ad1a445bc0eed969503c58dc$__63ac9e6015846003546004546000600160009054906101000a90046001600160a01b03166001600160a01b031663313ce5676040518163ffffffff1660e01b815260040160206040518083038186803b1580156101e557600080fd5b505afa1580156101f9573d6000803e3d6000fd5b505050506040513d601f19601f8201168201806040525081019061021d9190610951565b600260009054906101000a90046001600160a01b03166001600160a01b031663313ce5676040518163ffffffff1660e01b815260040160206040518083038186803b15801561026b57600080fd5b505afa15801561027f573d6000803e3d6000fd5b505050506040513d601f19601f820116820180604052508101906102a39190610951565b6040518763ffffffff1660e01b81526004016102c496959493929190610a3a565b60206040518083038186803b1580156102dc57600080fd5b505af41580156102f0573d6000803e3d6000fd5b505050506040513d601f19601f820116820180604052508101906103149190610939565b6002546040517f70a0823100000000000000000000000000000000000000000000000000000000815291925082916001600160a01b03909116906370a0823190610362903090600401610972565b60206040518083038186803b15801561037a57600080fd5b505afa15801561038e573d6000803e3d6000fd5b505050506040513d601f19601f820116820180604052508101906103b29190610939565b10156103bd57600080fd5b6040516323b872dd60e01b81526001600160a01b038516906323b872dd906103ed90339030908890600401610986565b602060405180830381600087803b15801561040757600080fd5b505af115801561041b573d6000803e3d6000fd5b505050506040513d601f19601f8201168201806040525081019061043f91906108fa565b61044857600080fd5b60025460405163a9059cbb60e01b81526001600160a01b039091169063a9059cbb9061047a90339085906004016109aa565b602060405180830381600087803b15801561049457600080fd5b505af11580156104a8573d6000803e3d6000fd5b505050506040513d601f19601f820116820180604052508101906104cc91906108fa565b6104d557600080fd5b610794565b73__$abe6619838ad1a445bc0eed969503c58dc$__63ac9e60158460035460045460018060009054906101000a90046001600160a01b03166001600160a01b031663313ce5676040518163ffffffff1660e01b815260040160206040518083038186803b15801561054a57600080fd5b505afa15801561055e573d6000803e3d6000fd5b505050506040513d601f19601f820116820180604052508101906105829190610951565b600260009054906101000a90046001600160a01b03166001600160a01b031663313ce5676040518163ffffffff1660e01b815260040160206040518083038186803b1580156105d057600080fd5b505afa1580156105e4573d6000803e3d6000fd5b505050506040513d601f19601f820116820180604052508101906106089190610951565b6040518763ffffffff1660e01b815260040161062996959493929190610a3a565b60206040518083038186803b15801561064157600080fd5b505af4158015610655573d6000803e3d6000fd5b505050506040513d601f19601f820116820180604052508101906106799190610939565b6040516323b872dd60e01b81529091506001600160a01b038516906323b872dd906106ac90339030908890600401610986565b602060405180830381600087803b1580156106c657600080fd5b505af11580156106da573d6000803e3d6000fd5b505050506040513d601f19601f820116820180604052508101906106fe91906108fa565b61070757600080fd5b60015460405163a9059cbb60e01b81526001600160a01b039091169063a9059cbb9061073990339085906004016109aa565b602060405180830381600087803b15801561075357600080fd5b505af1158015610767573d6000803e3d6000fd5b505050506040513d601f19601f8201168201806040525081019061078b91906108fa565b61079457600080fd5b50505050565b60045481565b6000546001600160a01b031633146107ca5760405162461bcd60e51b8152600401610152906109fa565b6040516323b872dd60e01b81526001600160a01b038316906323b872dd906107fa90339030908690600401610986565b602060405180830381600087803b15801561081457600080fd5b505af1158015610828573d6000803e3d6000fd5b505050506040513d601f19601f8201168201806040525081019061084c91906108fa565b505050565b6000546001600160a01b0316331461087b5760405162461bcd60e51b8152600401610152906109fa565b600455565b6000546001600160a01b031633146108aa5760405162461bcd60e51b8152600401610152906109fa565b600355565b6000546001600160a01b031681565b60035481565b600080604083850312156108d6578182fd5b82356001600160a01b03811681146108ec578283fd5b946020939093013593505050565b60006020828403121561090b578081fd5b8151801515811461091a578182fd5b9392505050565b600060208284031215610932578081fd5b5035919050565b60006020828403121561094a578081fd5b5051919050565b600060208284031215610962578081fd5b815160ff8116811461091a578182fd5b6001600160a01b0391909116815260200190565b6001600160a01b039384168152919092166020820152604081019190915260600190565b6001600160a01b03929092168252602082015260400190565b6020808252600f908201527f496e76616c696420616464726573730000000000000000000000000000000000604082015260600190565b6020808252600a908201527f4f6e6c79206f776e657200000000000000000000000000000000000000000000604082015260600190565b90815260200190565b958652602086019490945260408501929092521515606084015260ff90811660808401521660a082015260c0019056fea264697066735822122046f071059923b261e8f9116a8b83a3aff96142cd05cf93dacda1f57e0b5ee53264736f6c63430008010033",
  "linkReferences": {
    "contracts/TokenCount.sol": {
      "TokenCount": [
        {
          "length": 20,
          "start": 594
        },
        {
          "length": 20,
          "start": 1464
        }
      ]
    }
  },
  "deployedLinkReferences": {
    "contracts/TokenCount.sol": {
      "TokenCount": [
        {
          "length": 20,
          "start": 374
        },
        {
          "length": 20,
          "start": 1244
        }
      ]
    }
  }
}