{
    "contractName": "TokenExchange",
    "abi": [
        {
            "inputs": [
                {
                    "internalType": "address",
                    "name": "_tokenAAddress",
                    "type": "address"
                },
                {
                    "internalType": "address",
                    "name": "_tokenBAddress",
                    "type": "address"
                },
                {
                    "internalType": "uint256",
                    "name": "_price",
                    "type": "uint256"
                }
            ],
            "stateMutability": "nonpayable",
            "type": "constructor"
        },
        {
            "anonymous": false,
            "inputs": [
                {
                    "indexed": true,
                    "internalType": "address",
                    "name": "previousOwner",
                    "type": "address"
                },
                {
                    "indexed": true,
                    "internalType": "address",
                    "name": "newOwner",
                    "type": "address"
                }
            ],
            "name": "OwnershipTransferred",
            "type": "event"
        },
        {
            "inputs": [
                {
                    "internalType": "address",
                    "name": "_tokenAddress",
                    "type": "address"
                },
                {
                    "internalType": "uint256",
                    "name": "_amount",
                    "type": "uint256"
                }
            ],
            "name": "deposit",
            "outputs": [],
            "stateMutability": "nonpayable",
            "type": "function"
        },
        {
            "inputs": [
                {
                    "internalType": "address",
                    "name": "_tokenAddress",
                    "type": "address"
                },
                {
                    "internalType": "uint256",
                    "name": "_amount",
                    "type": "uint256"
                }
            ],
            "name": "exchange",
            "outputs": [],
            "stateMutability": "nonpayable",
            "type": "function"
        },
        {
            "inputs": [],
            "name": "owner",
            "outputs": [
                {
                    "internalType": "address",
                    "name": "",
                    "type": "address"
                }
            ],
            "stateMutability": "view",
            "type": "function"
        },
        {
            "inputs": [],
            "name": "price",
            "outputs": [
                {
                    "internalType": "uint256",
                    "name": "",
                    "type": "uint256"
                }
            ],
            "stateMutability": "view",
            "type": "function"
        },
        {
            "inputs": [],
            "name": "priceDecimals",
            "outputs": [
                {
                    "internalType": "uint256",
                    "name": "",
                    "type": "uint256"
                }
            ],
            "stateMutability": "view",
            "type": "function"
        },
        {
            "inputs": [],
            "name": "renounceOwnership",
            "outputs": [],
            "stateMutability": "nonpayable",
            "type": "function"
        },
        {
            "inputs": [],
            "name": "tokenAAddress",
            "outputs": [
                {
                    "internalType": "address",
                    "name": "",
                    "type": "address"
                }
            ],
            "stateMutability": "view",
            "type": "function"
        },
        {
            "inputs": [],
            "name": "tokenBAddress",
            "outputs": [
                {
                    "internalType": "address",
                    "name": "",
                    "type": "address"
                }
            ],
            "stateMutability": "view",
            "type": "function"
        },
        {
            "inputs": [
                {
                    "internalType": "address",
                    "name": "newOwner",
                    "type": "address"
                }
            ],
            "name": "transferOwnership",
            "outputs": [],
            "stateMutability": "nonpayable",
            "type": "function"
        },
        {
            "inputs": [
                {
                    "internalType": "uint256",
                    "name": "_price",
                    "type": "uint256"
                },
                {
                    "internalType": "uint256",
                    "name": "_priceDecimals",
                    "type": "uint256"
                }
            ],
            "name": "updatePrice",
            "outputs": [],
            "stateMutability": "nonpayable",
            "type": "function"
        }
    ],
    "bytecode": "6080604052600260045534801561001557600080fd5b50604051610dbb380380610dbb833981016040819052610034916100dd565b61003d33610071565b600355600180546001600160a01b039384166001600160a01b03199182161790915560028054929093169116179055610119565b600080546001600160a01b038381166001600160a01b0319831681178455604051919092169283917f8be0079c531659141344cd1fd0a4f28419497f9722a3daafe3b4186f6b6457e09190a35050565b80516001600160a01b03811681146100d857600080fd5b919050565b6000806000606084860312156100f257600080fd5b6100fb846100c1565b9250610109602085016100c1565b9150604084015190509250925092565b610c93806101286000396000f3fe608060405234801561001057600080fd5b506004361061009e5760003560e01c806382367b2d1161006657806382367b2d1461011a5780638da5cb5b1461012d578063a035b1fe1461013e578063f2fde38b14610147578063f8b706371461015a57600080fd5b8063045d0389146100a357806305300b28146100b857806347e7ef24146100d4578063715018a6146100e75780637eb73012146100ef575b600080fd5b6100b66100b1366004610ae8565b61016d565b005b6100c160045481565b6040519081526020015b60405180910390f35b6100b66100e2366004610ae8565b610566565b6100b66105a9565b600154610102906001600160a01b031681565b6040516001600160a01b0390911681526020016100cb565b6100b6610128366004610b12565b6105df565b6000546001600160a01b0316610102565b6100c160035481565b6100b6610155366004610b34565b610614565b600254610102906001600160a01b031681565b60015482906001600160a01b038083169116148061019857506002546001600160a01b038281169116145b6101db5760405162461bcd60e51b815260206004820152600f60248201526e496e76616c6964206164647265737360881b60448201526064015b60405180910390fd5b6001546000906001600160a01b03858116911614156103ad5773__$0915116ccb4a50df65b960ae3471b4699e$__634d3102dc846003546004546000600160009054906101000a90046001600160a01b03166001600160a01b031663313ce5676040518163ffffffff1660e01b8152600401602060405180830381865afa15801561026a573d6000803e3d6000fd5b505050506040513d601f19601f8201168201806040525081019061028e9190610b4f565b600260009054906101000a90046001600160a01b03166001600160a01b031663313ce5676040518163ffffffff1660e01b8152600401602060405180830381865afa1580156102e1573d6000803e3d6000fd5b505050506040513d601f19601f820116820180604052508101906103059190610b4f565b6040516001600160e01b031960e089901b1681526004810196909652602486019490945260448501929092521515606484015260ff90811660848401521660a482015260c401602060405180830381865af4158015610368573d6000803e3d6000fd5b505050506040513d601f19601f8201168201806040525081019061038c9190610b72565b6002549091506103a89085906001600160a01b031683866106af565b610560565b73__$0915116ccb4a50df65b960ae3471b4699e$__634d3102dc8460035460045460018060009054906101000a90046001600160a01b03166001600160a01b031663313ce5676040518163ffffffff1660e01b8152600401602060405180830381865afa158015610422573d6000803e3d6000fd5b505050506040513d601f19601f820116820180604052508101906104469190610b4f565b600260009054906101000a90046001600160a01b03166001600160a01b031663313ce5676040518163ffffffff1660e01b8152600401602060405180830381865afa158015610499573d6000803e3d6000fd5b505050506040513d601f19601f820116820180604052508101906104bd9190610b4f565b6040516001600160e01b031960e089901b1681526004810196909652602486019490945260448501929092521515606484015260ff90811660848401521660a482015260c401602060405180830381865af4158015610520573d6000803e3d6000fd5b505050506040513d601f19601f820116820180604052508101906105449190610b72565b6001549091506105609085906001600160a01b031683866106af565b50505050565b6000546001600160a01b031633146105905760405162461bcd60e51b81526004016101d290610b8b565b6105a56001600160a01b038316333084610790565b5050565b6000546001600160a01b031633146105d35760405162461bcd60e51b81526004016101d290610b8b565b6105dd60006107fb565b565b6000546001600160a01b031633146106095760405162461bcd60e51b81526004016101d290610b8b565b600391909155600455565b6000546001600160a01b0316331461063e5760405162461bcd60e51b81526004016101d290610b8b565b6001600160a01b0381166106a35760405162461bcd60e51b815260206004820152602660248201527f4f776e61626c653a206e6577206f776e657220697320746865207a65726f206160448201526564647265737360d01b60648201526084016101d2565b6106ac816107fb565b50565b6040516370a0823160e01b815230600482015282906001600160a01b038516906370a0823190602401602060405180830381865afa1580156106f5573d6000803e3d6000fd5b505050506040513d601f19601f820116820180604052508101906107199190610b72565b10156107675760405162461bcd60e51b815260206004820152601c60248201527f4e6f7420656e6f75676820746f6b656e7320696e206465706f7369740000000060448201526064016101d2565b61077c6001600160a01b038516333084610790565b6105606001600160a01b038416338461084b565b6040516001600160a01b03808516602483015283166044820152606481018290526105609085906323b872dd60e01b906084015b60408051601f198184030181529190526020810180516001600160e01b03166001600160e01b031990931692909217909152610880565b600080546001600160a01b038381166001600160a01b0319831681178455604051919092169283917f8be0079c531659141344cd1fd0a4f28419497f9722a3daafe3b4186f6b6457e09190a35050565b6040516001600160a01b03831660248201526044810182905261087b90849063a9059cbb60e01b906064016107c4565b505050565b60006108d5826040518060400160405280602081526020017f5361666545524332303a206c6f772d6c6576656c2063616c6c206661696c6564815250856001600160a01b03166109529092919063ffffffff16565b80519091501561087b57808060200190518101906108f39190610bc0565b61087b5760405162461bcd60e51b815260206004820152602a60248201527f5361666545524332303a204552433230206f7065726174696f6e20646964206e6044820152691bdd081cdd58d8d9595960b21b60648201526084016101d2565b6060610961848460008561096b565b90505b9392505050565b6060824710156109cc5760405162461bcd60e51b815260206004820152602660248201527f416464726573733a20696e73756666696369656e742062616c616e636520666f6044820152651c8818d85b1b60d21b60648201526084016101d2565b843b610a1a5760405162461bcd60e51b815260206004820152601d60248201527f416464726573733a2063616c6c20746f206e6f6e2d636f6e747261637400000060448201526064016101d2565b600080866001600160a01b03168587604051610a369190610c0e565b60006040518083038185875af1925050503d8060008114610a73576040519150601f19603f3d011682016040523d82523d6000602084013e610a78565b606091505b5091509150610a88828286610a93565b979650505050505050565b60608315610aa2575081610964565b825115610ab25782518084602001fd5b8160405162461bcd60e51b81526004016101d29190610c2a565b80356001600160a01b0381168114610ae357600080fd5b919050565b60008060408385031215610afb57600080fd5b610b0483610acc565b946020939093013593505050565b60008060408385031215610b2557600080fd5b50508035926020909101359150565b600060208284031215610b4657600080fd5b61096482610acc565b600060208284031215610b6157600080fd5b815160ff8116811461096457600080fd5b600060208284031215610b8457600080fd5b5051919050565b6020808252818101527f4f776e61626c653a2063616c6c6572206973206e6f7420746865206f776e6572604082015260600190565b600060208284031215610bd257600080fd5b8151801515811461096457600080fd5b60005b83811015610bfd578181015183820152602001610be5565b838111156105605750506000910152565b60008251610c20818460208701610be2565b9190910192915050565b6020815260008251806020840152610c49816040850160208701610be2565b601f01601f1916919091016040019291505056fea264697066735822122089a462e29af74e401d6a7be36178389b1252babe288ebe8d945ac1aa7e83f43f64736f6c634300080a0033",
    "sourcePath": "/home/rumblefish/cw1/contracts/TokenExchange.sol",
    "compiler": {
        "name": "solc",
        "version": "0.8.10+commit.fc410830"
    },
    "functionHashes": {
        "deposit(address,uint256)": "47e7ef24",
        "exchange(address,uint256)": "045d0389",
        "owner()": "8da5cb5b",
        "price()": "a035b1fe",
        "priceDecimals()": "05300b28",
        "renounceOwnership()": "715018a6",
        "tokenAAddress()": "7eb73012",
        "tokenBAddress()": "f8b70637",
        "transferOwnership(address)": "f2fde38b",
        "updatePrice(uint256,uint256)": "82367b2d"
    },
    "gasEstimates": {
        "creation": {
            "codeDepositCost": "643800",
            "executionCost": "infinite",
            "totalCost": "infinite"
        },
        "external": {
            "deposit(address,uint256)": "infinite",
            "exchange(address,uint256)": "infinite",
            "owner()": "2353",
            "price()": "2328",
            "priceDecimals()": "2307",
            "renounceOwnership()": "28181",
            "tokenAAddress()": "2426",
            "tokenBAddress()": "2425",
            "transferOwnership(address)": "28375",
            "updatePrice(uint256,uint256)": "46599"
        },
        "internal": {
            "_transferToken(address,address,uint256,uint256)": "infinite"
        }
    }
}