{
  "_format": "hh-sol-artifact-1",
  "contractName": "TokenCount",
  "sourceName": "contracts/TokenCount.sol",
  "abi": [
    {
      "inputs": [
        {
          "internalType": "uint256",
          "name": "_amount",
          "type": "uint256"
        },
        {
          "internalType": "uint256",
          "name": "_price",
          "type": "uint256"
        },
        {
          "internalType": "uint256",
          "name": "_decimals",
          "type": "uint256"
        },
        {
          "internalType": "bool",
          "name": "_isBuy",
          "type": "bool"
        },
        {
          "internalType": "uint256",
          "name": "_tokenADecimals",
          "type": "uint256"
        },
        {
          "internalType": "uint256",
          "name": "_tokenBDecimals",
          "type": "uint256"
        }
      ],
      "name": "count",
      "outputs": [
        {
          "internalType": "uint256",
          "name": "",
          "type": "uint256"
        }
      ],
      "stateMutability": "pure",
      "type": "function"
    }
  ],
  "bytecode": "0x6103fa61003a600b82828239805160001a60731461002d57634e487b7160e01b600052600060045260246000fd5b30600052607381538281f3fe73000000000000000000000000000000000000000030146080604052600436106100355760003560e01c8063ac9e60151461003a575b600080fd5b61004d6100483660046100ef565b610063565b60405161005a9190610145565b60405180910390f35b60008085610071848661014e565b61007b919061036f565b9050600081126100c757846100b15761009581600a6101f3565b61009f888a610350565b6100a9919061018d565b9150506100e5565b866100bd82600a6101f3565b61009f908a610350565b6100d3600019826102cd565b9050846100b15761009581600a6101f3565b9695505050505050565b60008060008060008060c08789031215610107578182fd5b8635955060208701359450604087013593506060870135801515811461012b578283fd5b9598949750929560808101359460a0909101359350915050565b90815260200190565b6000808212826001600160ff1b030384138115161561016f5761016f6103ae565b82600160ff1b038412811615610187576101876103ae565b50500190565b6000826101a857634e487b7160e01b81526012600452602481fd5b500490565b80825b60018086116101bf57506101ea565b8187048211156101d1576101d16103ae565b808616156101de57918102915b9490941c9380026101b0565b94509492505050565b60006102026000198484610209565b9392505050565b60008261021857506001610202565b8161022557506000610202565b816001811461023b576002811461024557610272565b6001915050610202565b60ff841115610256576102566103ae565b6001841b91508482111561026c5761026c6103ae565b50610202565b5060208310610133831016604e8410600b84101617156102a5575081810a838111156102a0576102a06103ae565b610202565b6102b284848460016101ad565b8086048211156102c4576102c46103ae565b02949350505050565b60006001600160ff1b03818413828413858304851182821616156102f3576102f36103ae565b600160ff1b84871286820588128184161615610311576103116103ae565b85871292508782058712848416161561032c5761032c6103ae565b87850587128184161615610342576103426103ae565b505050929093029392505050565b600081600019048311821515161561036a5761036a6103ae565b500290565b600080831283600160ff1b0183128115161561038d5761038d6103ae565b836001600160ff1b030183138116156103a8576103a86103ae565b50500390565b634e487b7160e01b600052601160045260246000fdfea26469706673582212201d531d698b068e8d3e867f754b85f94615ebcec57293a48e0df19d6c9aba910064736f6c63430008010033",
  "linkReferences": {},
  "deployedLinkReferences": {}
}